{
  "contractName": "Empfangsbekenntnis",
  "abi": [
    {
      "constant": true,
      "inputs": [],
      "name": "name",
      "outputs": [
        {
          "name": "",
          "type": "string"
        }
      ],
      "payable": false,
      "stateMutability": "view",
      "type": "function"
    },
    {
      "constant": true,
      "inputs": [],
      "name": "documentCount",
      "outputs": [
        {
          "name": "",
          "type": "uint256"
        }
      ],
      "payable": false,
      "stateMutability": "view",
      "type": "function"
    },
    {
      "constant": true,
      "inputs": [
        {
          "name": "",
          "type": "uint256"
        }
      ],
      "name": "documents",
      "outputs": [
        {
          "name": "id",
          "type": "uint256"
        },
        {
          "name": "documentLinkHash",
          "type": "bytes32"
        },
        {
          "name": "sender",
          "type": "address"
        },
        {
          "name": "readCount",
          "type": "uint256"
        }
      ],
      "payable": false,
      "stateMutability": "view",
      "type": "function"
    },
    {
      "inputs": [],
      "payable": false,
      "stateMutability": "nonpayable",
      "type": "constructor"
    },
    {
      "anonymous": false,
      "inputs": [
        {
          "indexed": false,
          "name": "id",
          "type": "uint256"
        },
        {
          "indexed": false,
          "name": "documentLinkHash",
          "type": "bytes32"
        },
        {
          "indexed": false,
          "name": "sender",
          "type": "address"
        }
      ],
      "name": "DocumentSent",
      "type": "event"
    },
    {
      "anonymous": false,
      "inputs": [
        {
          "indexed": false,
          "name": "id",
          "type": "uint256"
        },
        {
          "indexed": false,
          "name": "documentLinkHash",
          "type": "bytes32"
        },
        {
          "indexed": false,
          "name": "sender",
          "type": "address"
        },
        {
          "indexed": false,
          "name": "reader",
          "type": "address"
        },
        {
          "indexed": false,
          "name": "readCount",
          "type": "uint256"
        }
      ],
      "name": "DocumentRead",
      "type": "event"
    },
    {
      "constant": false,
      "inputs": [
        {
          "name": "_documentLink",
          "type": "string"
        }
      ],
      "name": "sendDocument",
      "outputs": [],
      "payable": false,
      "stateMutability": "nonpayable",
      "type": "function"
    },
    {
      "constant": false,
      "inputs": [
        {
          "name": "_id",
          "type": "uint256"
        },
        {
          "name": "_documentLink",
          "type": "string"
        }
      ],
      "name": "readDocument",
      "outputs": [],
      "payable": false,
      "stateMutability": "nonpayable",
      "type": "function"
    },
    {
      "constant": true,
      "inputs": [
        {
          "name": "number",
          "type": "uint256"
        },
        {
          "name": "series",
          "type": "string"
        }
      ],
      "name": "hashLink",
      "outputs": [
        {
          "name": "",
          "type": "bytes32"
        }
      ],
      "payable": false,
      "stateMutability": "pure",
      "type": "function"
    },
    {
      "constant": true,
      "inputs": [
        {
          "name": "id",
          "type": "uint256"
        }
      ],
      "name": "getReads",
      "outputs": [
        {
          "name": "",
          "type": "address[]"
        }
      ],
      "payable": false,
      "stateMutability": "view",
      "type": "function"
    }
  ],
  "bytecode": "0x6080604052600060015534801561001557600080fd5b506040518060600160405280602d8152602001610edd602d91396000908051906020019061004492919061004a565b506100ef565b828054600181600116156101000203166002900490600052602060002090601f016020900481019282601f1061008b57805160ff19168380011785556100b9565b828001600101855582156100b9579182015b828111156100b857825182559160200191906001019061009d565b5b5090506100c691906100ca565b5090565b6100ec91905b808211156100e85760008160009055506001016100d0565b5090565b90565b610ddf806100fe6000396000f3fe608060405234801561001057600080fd5b506004361061007d5760003560e01c806328fc8c1d1161005b57806328fc8c1d146102615780634a4c171914610326578063a5b16b2e146103e1578063c2ed2b05146103ff5761007d565b806306fdde031461008257806312ca7f1f1461010557806315d82f50146101de575b600080fd5b61008a610482565b6040518080602001828103825283818151815260200191508051906020019080838360005b838110156100ca5780820151818401526020810190506100af565b50505050905090810190601f1680156100f75780820380516001836020036101000a031916815260200191505b509250505060405180910390f35b6101c86004803603604081101561011b57600080fd5b81019080803590602001909291908035906020019064010000000081111561014257600080fd5b82018360208201111561015457600080fd5b8035906020019184600183028401116401000000008311171561017657600080fd5b91908080601f016020809104026020016040519081016040528093929190818152602001838380828437600081840152601f19601f820116905080830192505050505050509192919290505050610520565b6040518082815260200191505060405180910390f35b61020a600480360360208110156101f457600080fd5b81019080803590602001909291905050506105be565b6040518080602001828103825283818151815260200191508051906020019060200280838360005b8381101561024d578082015181840152602081019050610232565b505050509050019250505060405180910390f35b6103246004803603604081101561027757600080fd5b81019080803590602001909291908035906020019064010000000081111561029e57600080fd5b8201836020820111156102b057600080fd5b803590602001918460018302840111640100000000831117156102d257600080fd5b91908080601f016020809104026020016040519081016040528093929190818152602001838380828437600081840152601f19601f8201169050808301925050505050505091929192905050506106f7565b005b6103df6004803603602081101561033c57600080fd5b810190808035906020019064010000000081111561035957600080fd5b82018360208201111561036b57600080fd5b8035906020019184600183028401116401000000008311171561038d57600080fd5b91908080601f016020809104026020016040519081016040528093929190818152602001838380828437600081840152601f19601f820116905080830192505050505050509192919290505050610a37565b005b6103e9610c26565b6040518082815260200191505060405180910390f35b61042b6004803603602081101561041557600080fd5b8101908080359060200190929190505050610c2c565b604051808581526020018481526020018373ffffffffffffffffffffffffffffffffffffffff1673ffffffffffffffffffffffffffffffffffffffff16815260200182815260200194505050505060405180910390f35b60008054600181600116156101000203166002900480601f0160208091040260200160405190810160405280929190818152602001828054600181600116156101000203166002900480156105185780601f106104ed57610100808354040283529160200191610518565b820191906000526020600020905b8154815290600101906020018083116104fb57829003601f168201915b505050505081565b600082826040516020018083815260200180602001828103825283818151815260200191508051906020019080838360005b8381101561056d578082015181840152602081019050610552565b50505050905090810190601f16801561059a5780820380516001836020036101000a031916815260200191505b50935050505060405160208183030381529060405280519060200120905092915050565b60606105c8610c7c565b600260008481526020019081526020016000206040518060a001604052908160008201548152602001600182015481526020016002820160009054906101000a900473ffffffffffffffffffffffffffffffffffffffff1673ffffffffffffffffffffffffffffffffffffffff1673ffffffffffffffffffffffffffffffffffffffff16815260200160038201548152602001600482018054806020026020016040519081016040528092919081815260200182805480156106df57602002820191906000526020600020905b8160009054906101000a900473ffffffffffffffffffffffffffffffffffffffff1673ffffffffffffffffffffffffffffffffffffffff1681526020019060010190808311610695575b50505050508152505090508060800151915050919050565b600060026000848152602001908152602001600020905060008160020160009054906101000a900473ffffffffffffffffffffffffffffffffffffffff1690506000339050600083600001541180156107565750600154836000015411155b6107c8576040517f08c379a00000000000000000000000000000000000000000000000000000000081526004018080602001828103825260118152602001807f6d757374207573652076616c696420696400000000000000000000000000000081525060200191505060405180910390fd5b8073ffffffffffffffffffffffffffffffffffffffff168273ffffffffffffffffffffffffffffffffffffffff16141561084d576040517f08c379a0000000000000000000000000000000000000000000000000000000008152600401808060200182810382526022815260200180610d926022913960400191505060405180910390fd5b60006108598686610520565b9050808460010154146108d4576040517f08c379a000000000000000000000000000000000000000000000000000000000815260040180806020018281038252601a8152602001807f6d757374207265616420636f727265637420646f63756d656e7400000000000081525060200191505060405180910390fd5b8360030160008154809291906001019190505550836004018290806001815401808255809150509060018203906000526020600020016000909192909190916101000a81548173ffffffffffffffffffffffffffffffffffffffff021916908373ffffffffffffffffffffffffffffffffffffffff160217905550507f0ec5203216401d9321412b3e9cbfb64d26ac500dc880b38c96509901aec7b331846000015485600101548660020160009054906101000a900473ffffffffffffffffffffffffffffffffffffffff16858860030154604051808681526020018581526020018473ffffffffffffffffffffffffffffffffffffffff1673ffffffffffffffffffffffffffffffffffffffff1681526020018373ffffffffffffffffffffffffffffffffffffffff1673ffffffffffffffffffffffffffffffffffffffff1681526020018281526020019550505050505060405180910390a1505050505050565b6000815111610aae576040517f08c379a00000000000000000000000000000000000000000000000000000000081526004018080602001828103825260198152602001807f6d7573742068617665206120646f63756d656e74206c696e6b0000000000000081525060200191505060405180910390fd5b6001600081548092919060010191905055506000610ace60015483610520565b905060606040518060a0016040528060015481526020018381526020013373ffffffffffffffffffffffffffffffffffffffff1681526020016000815260200182815250600260006001548152602001908152602001600020600082015181600001556020820151816001015560408201518160020160006101000a81548173ffffffffffffffffffffffffffffffffffffffff021916908373ffffffffffffffffffffffffffffffffffffffff160217905550606082015181600301556080820151816004019080519060200190610ba8929190610cc4565b509050507fc3258ec84574a7e28c44f85132d62b966ff7a054bcd40b4f865e8c221f5f73c56001548333604051808481526020018381526020018273ffffffffffffffffffffffffffffffffffffffff1673ffffffffffffffffffffffffffffffffffffffff168152602001935050505060405180910390a1505050565b60015481565b60026020528060005260406000206000915090508060000154908060010154908060020160009054906101000a900473ffffffffffffffffffffffffffffffffffffffff16908060030154905084565b6040518060a001604052806000815260200160008019168152602001600073ffffffffffffffffffffffffffffffffffffffff16815260200160008152602001606081525090565b828054828255906000526020600020908101928215610d3d579160200282015b82811115610d3c5782518260006101000a81548173ffffffffffffffffffffffffffffffffffffffff021916908373ffffffffffffffffffffffffffffffffffffffff16021790555091602001919060010190610ce4565b5b509050610d4a9190610d4e565b5090565b610d8e91905b80821115610d8a57600081816101000a81549073ffffffffffffffffffffffffffffffffffffffff021916905550600101610d54565b5090565b9056fe646f63756d656e7420726561646572206d757374206e6f742062652073656e646572a165627a7a72305820f44d617d0414dea8fb1befb856aa20df048a0b57ad85cdafafda14c8947cc96c0029456d7066616e677362656b656e6e746e6973202824313734205a6976696c70726f7a6573736f72646e756e6729",
  "source": "pragma solidity ^0.5.0;\n\ncontract Empfangsbekenntnis {\n    string public name;\n    uint public documentCount = 0;\n    mapping(uint => Document) public documents;\n\n    struct Document {\n        uint id;\n        bytes32 documentLinkHash;\n        address payable sender;\n        uint readCount;\n        address[] reads;\n    }\n\n    event DocumentSent(\n        uint id,\n        bytes32 documentLinkHash,\n        address payable sender\n    );\n\n    event DocumentRead(\n        uint id,\n        bytes32 documentLinkHash,\n        address payable sender,\n        address payable reader,\n        uint readCount\n    );\n\n    constructor() public {\n        name = \"Empfangsbekenntnis ($174 Zivilprozessordnung)\";\n    }\n\n    function sendDocument(string memory _documentLink) public {\n        // Require a valid name\n        require(bytes(_documentLink).length > 0, \"must have a document link\");\n        // Increment document count\n        documentCount ++;\n        // Hash document link to prevent putting clear text link on chain. Different hashes for same document because of documentNumber in Hash.\n        bytes32 _documentLinkHash = hashLink(documentCount, _documentLink);\n        // Create the document\n        address[] memory emptyAddressArray;\n        documents[documentCount] = Document(documentCount, _documentLinkHash, msg.sender, 0, emptyAddressArray);\n        // Trigger an event\n        emit DocumentSent(documentCount, _documentLinkHash, msg.sender);\n    }\n\n    function readDocument(uint _id, string memory _documentLink) public {\n        // Fetch the document\n        Document storage _document = documents[_id];\n        // Fetch the sender\n        address payable _sender = _document.sender;\n        address payable _reader = msg.sender;\n        // Make sure the document has a valid id\n        require(_document.id > 0 && _document.id <= documentCount, \"must use valid id\");\n        // Require that the reader is not the sender\n        require(_sender != _reader, \"document reader must not be sender\");\n        // Hash document link and check with stored hash to prevent fraudulent document reading.\n        bytes32 _documentLinkHash = hashLink(_id, _documentLink);\n        require(_document.documentLinkHash == _documentLinkHash, \"must read correct document\");\n        // Mark as read\n        _document.readCount ++;\n        _document.reads.push(_reader);\n        // Update the document\n        //documents[_id] = _document;\n        // Trigger an event\n        emit DocumentRead(_document.id, _document.documentLinkHash, _document.sender, _reader, _document.readCount);\n    }\n\n    function hashLink(uint256 number, string memory series) public pure returns (bytes32) {\n        return keccak256(abi.encode(number, series));\n    }\n\n    function getReads(uint256 id) public view returns (address[] memory) {\n        // Fetch the document\n        Document memory _document = documents[id];\n        return _document.reads;\n    }\n}\n",
  "sourcePath": "D:/BlockchainEmpfangsbekenntnis/src/contracts/Empfangsbekenntnis.sol",
  "compiler": {
    "name": "solc",
    "version": "0.5.8+commit.23d335f2.Emscripten.clang"
  },
  "schemaVersion": "3.0.17",
  "updatedAt": "2019-11-14T15:36:42.060Z",
  "networkType": "ethereum",
  "devdoc": {
    "methods": {}
  },
  "userdoc": {
    "methods": {}
  }
}