{
  "contractName": "Empfangsbekenntnis",
  "abi": [
    {
      "constant": true,
      "inputs": [],
      "name": "name",
      "outputs": [
        {
          "name": "",
          "type": "string"
        }
      ],
      "payable": false,
      "stateMutability": "view",
      "type": "function"
    },
    {
      "constant": true,
      "inputs": [],
      "name": "documentCount",
      "outputs": [
        {
          "name": "",
          "type": "uint256"
        }
      ],
      "payable": false,
      "stateMutability": "view",
      "type": "function"
    },
    {
      "constant": true,
      "inputs": [
        {
          "name": "",
          "type": "uint256"
        }
      ],
      "name": "documents",
      "outputs": [
        {
          "name": "id",
          "type": "uint256"
        },
        {
          "name": "documentLinkHash",
          "type": "bytes32"
        },
        {
          "name": "sender",
          "type": "address"
        },
        {
          "name": "readCount",
          "type": "uint256"
        }
      ],
      "payable": false,
      "stateMutability": "view",
      "type": "function"
    },
    {
      "inputs": [],
      "payable": false,
      "stateMutability": "nonpayable",
      "type": "constructor"
    },
    {
      "anonymous": false,
      "inputs": [
        {
          "indexed": false,
          "name": "id",
          "type": "uint256"
        },
        {
          "indexed": false,
          "name": "documentLinkHash",
          "type": "bytes32"
        },
        {
          "indexed": false,
          "name": "sender",
          "type": "address"
        }
      ],
      "name": "DocumentSent",
      "type": "event"
    },
    {
      "anonymous": false,
      "inputs": [
        {
          "indexed": false,
          "name": "id",
          "type": "uint256"
        },
        {
          "indexed": false,
          "name": "documentLinkHash",
          "type": "bytes32"
        },
        {
          "indexed": false,
          "name": "sender",
          "type": "address"
        },
        {
          "indexed": false,
          "name": "reader",
          "type": "address"
        },
        {
          "indexed": false,
          "name": "readCount",
          "type": "uint256"
        }
      ],
      "name": "DocumentRead",
      "type": "event"
    },
    {
      "constant": false,
      "inputs": [
        {
          "name": "_documentLink",
          "type": "string"
        }
      ],
      "name": "sendDocument",
      "outputs": [],
      "payable": false,
      "stateMutability": "nonpayable",
      "type": "function"
    },
    {
      "constant": false,
      "inputs": [
        {
          "name": "_id",
          "type": "uint256"
        },
        {
          "name": "_documentLink",
          "type": "string"
        }
      ],
      "name": "readDocument",
      "outputs": [],
      "payable": false,
      "stateMutability": "nonpayable",
      "type": "function"
    },
    {
      "constant": true,
      "inputs": [
        {
          "name": "number",
          "type": "uint256"
        },
        {
          "name": "series",
          "type": "string"
        }
      ],
      "name": "hashLink",
      "outputs": [
        {
          "name": "",
          "type": "bytes32"
        }
      ],
      "payable": false,
      "stateMutability": "pure",
      "type": "function"
    }
  ],
  "bytecode": "0x6080604052600060015534801561001557600080fd5b506040518060600160405280602d8152602001610beb602d91396000908051906020019061004492919061004a565b506100ef565b828054600181600116156101000203166002900490600052602060002090601f016020900481019282601f1061008b57805160ff19168380011785556100b9565b828001600101855582156100b9579182015b828111156100b857825182559160200191906001019061009d565b5b5090506100c691906100ca565b5090565b6100ec91905b808211156100e85760008160009055506001016100d0565b5090565b90565b610aed806100fe6000396000f3fe608060405234801561001057600080fd5b50600436106100625760003560e01c806306fdde031461006757806312ca7f1f146100ea57806328fc8c1d146101c35780634a4c171914610288578063a5b16b2e14610343578063c2ed2b0514610361575b600080fd5b61006f6103e4565b6040518080602001828103825283818151815260200191508051906020019080838360005b838110156100af578082015181840152602081019050610094565b50505050905090810190601f1680156100dc5780820380516001836020036101000a031916815260200191505b509250505060405180910390f35b6101ad6004803603604081101561010057600080fd5b81019080803590602001909291908035906020019064010000000081111561012757600080fd5b82018360208201111561013957600080fd5b8035906020019184600183028401116401000000008311171561015b57600080fd5b91908080601f016020809104026020016040519081016040528093929190818152602001838380828437600081840152601f19601f820116905080830192505050505050509192919290505050610482565b6040518082815260200191505060405180910390f35b610286600480360360408110156101d957600080fd5b81019080803590602001909291908035906020019064010000000081111561020057600080fd5b82018360208201111561021257600080fd5b8035906020019184600183028401116401000000008311171561023457600080fd5b91908080601f016020809104026020016040519081016040528093929190818152602001838380828437600081840152601f19601f820116905080830192505050505050509192919290505050610520565b005b6103416004803603602081101561029e57600080fd5b81019080803590602001906401000000008111156102bb57600080fd5b8201836020820111156102cd57600080fd5b803590602001918460018302840111640100000000831117156102ef57600080fd5b91908080601f016020809104026020016040519081016040528093929190818152602001838380828437600081840152601f19601f820116905080830192505050505050509192919290505050610880565b005b61034b610a49565b6040518082815260200191505060405180910390f35b61038d6004803603602081101561037757600080fd5b8101908080359060200190929190505050610a4f565b604051808581526020018481526020018373ffffffffffffffffffffffffffffffffffffffff1673ffffffffffffffffffffffffffffffffffffffff16815260200182815260200194505050505060405180910390f35b60008054600181600116156101000203166002900480601f01602080910402602001604051908101604052809291908181526020018280546001816001161561010002031660029004801561047a5780601f1061044f5761010080835404028352916020019161047a565b820191906000526020600020905b81548152906001019060200180831161045d57829003601f168201915b505050505081565b600082826040516020018083815260200180602001828103825283818151815260200191508051906020019080838360005b838110156104cf5780820151818401526020810190506104b4565b50505050905090810190601f1680156104fc5780820380516001836020036101000a031916815260200191505b50935050505060405160208183030381529060405280519060200120905092915050565b600060026000848152602001908152602001600020905060008160020160009054906101000a900473ffffffffffffffffffffffffffffffffffffffff16905060003390506000836000015411801561057f5750600154836000015411155b6105f1576040517f08c379a00000000000000000000000000000000000000000000000000000000081526004018080602001828103825260118152602001807f6d757374207573652076616c696420696400000000000000000000000000000081525060200191505060405180910390fd5b8073ffffffffffffffffffffffffffffffffffffffff168273ffffffffffffffffffffffffffffffffffffffff161415610676576040517f08c379a0000000000000000000000000000000000000000000000000000000008152600401808060200182810382526022815260200180610aa06022913960400191505060405180910390fd5b60006106828686610482565b9050808460010154146106fd576040517f08c379a000000000000000000000000000000000000000000000000000000000815260040180806020018281038252601a8152602001807f6d757374207265616420636f727265637420646f63756d656e7400000000000081525060200191505060405180910390fd5b836003016000815480929190600101919050555060405180602001604052808373ffffffffffffffffffffffffffffffffffffffff168152508460040160008660030154815260200190815260200160002060008201518160000160006101000a81548173ffffffffffffffffffffffffffffffffffffffff021916908373ffffffffffffffffffffffffffffffffffffffff1602179055509050507f0ec5203216401d9321412b3e9cbfb64d26ac500dc880b38c96509901aec7b331846000015485600101548660020160009054906101000a900473ffffffffffffffffffffffffffffffffffffffff16858860030154604051808681526020018581526020018473ffffffffffffffffffffffffffffffffffffffff1673ffffffffffffffffffffffffffffffffffffffff1681526020018373ffffffffffffffffffffffffffffffffffffffff1673ffffffffffffffffffffffffffffffffffffffff1681526020018281526020019550505050505060405180910390a1505050505050565b60008151116108f7576040517f08c379a00000000000000000000000000000000000000000000000000000000081526004018080602001828103825260198152602001807f6d7573742068617665206120646f63756d656e74206c696e6b0000000000000081525060200191505060405180910390fd5b600160008154809291906001019190505550600061091760015483610482565b9050604051806080016040528060015481526020018281526020013373ffffffffffffffffffffffffffffffffffffffff1681526020016000815250600260006001548152602001908152602001600020600082015181600001556020820151816001015560408201518160020160006101000a81548173ffffffffffffffffffffffffffffffffffffffff021916908373ffffffffffffffffffffffffffffffffffffffff160217905550606082015181600301559050507fc3258ec84574a7e28c44f85132d62b966ff7a054bcd40b4f865e8c221f5f73c56001548233604051808481526020018381526020018273ffffffffffffffffffffffffffffffffffffffff1673ffffffffffffffffffffffffffffffffffffffff168152602001935050505060405180910390a15050565b60015481565b60026020528060005260406000206000915090508060000154908060010154908060020160009054906101000a900473ffffffffffffffffffffffffffffffffffffffff1690806003015490508456fe646f63756d656e7420726561646572206d757374206e6f742062652073656e646572a165627a7a72305820d7c930582760bd94e14b91f0557a769577cd0e3008d2d73be0376b68f3a7cbbd0029456d7066616e677362656b656e6e746e6973202824313734205a6976696c70726f7a6573736f72646e756e6729",
  "source": "pragma solidity ^0.5.0;\n\ncontract Empfangsbekenntnis {\n    string public name;\n    uint public documentCount = 0;\n    mapping(uint => Document) public documents;\n\n    struct Document {\n        uint id;\n        bytes32 documentLinkHash;\n        address payable sender;\n        uint readCount;\n        mapping(uint => Read) reads;\n    }\n\n    struct Read {\n        address payable reader;\n    }\n\n    event DocumentSent(\n        uint id,\n        bytes32 documentLinkHash,\n        address payable sender\n    );\n\n    event DocumentRead(\n        uint id,\n        bytes32 documentLinkHash,\n        address payable sender,\n        address payable reader,\n        uint readCount\n    );\n\n    constructor() public {\n        name = \"Empfangsbekenntnis ($174 Zivilprozessordnung)\";\n    }\n\n    function sendDocument(string memory _documentLink) public {\n        // Require a valid name\n        require(bytes(_documentLink).length > 0, \"must have a document link\");\n        // Increment document count\n        documentCount ++;\n        // Hash document link to prevent putting clear text link on chain. Different hashes for same document because of documentNumber in Hash.\n        bytes32 _documentLinkHash = hashLink(documentCount, _documentLink);\n        // Create the document\n        documents[documentCount] = Document(documentCount, _documentLinkHash, msg.sender, 0);\n        // Trigger an event\n        emit DocumentSent(documentCount, _documentLinkHash, msg.sender);\n    }\n\n    function readDocument(uint _id, string memory _documentLink) public {\n        // Fetch the document\n        Document storage _document = documents[_id];\n        // Fetch the sender\n        address payable _sender = _document.sender;\n        address payable _reader = msg.sender;\n        // Make sure the document has a valid id\n        require(_document.id > 0 && _document.id <= documentCount, \"must use valid id\");\n        // Require that the reader is not the sender\n        require(_sender != _reader, \"document reader must not be sender\");\n        // Hash document link and check with stored hash to prevent fraudulent document reading.\n        bytes32 _documentLinkHash = hashLink(_id, _documentLink);\n        require(_document.documentLinkHash == _documentLinkHash, \"must read correct document\");\n        // Mark as read\n        _document.readCount ++;\n        _document.reads[_document.readCount] = Read(_reader);\n        // Update the document\n        //documents[_id] = _document;\n        // Trigger an event\n        emit DocumentRead(_document.id, _document.documentLinkHash, _document.sender, _reader, _document.readCount);\n    }\n\n    function hashLink(uint256 number, string memory series) public pure returns (bytes32) {\n        return keccak256(abi.encode(number, series));\n    }\n}\n",
  "sourcePath": "D:/BlockchainEmpfangsbekenntnis/src/contracts/Empfangsbekenntnis.sol",
  "compiler": {
    "name": "solc",
    "version": "0.5.8+commit.23d335f2.Emscripten.clang"
  },
  "schemaVersion": "3.0.17",
  "updatedAt": "2019-11-14T13:38:36.585Z",
  "networkType": "ethereum",
  "devdoc": {
    "methods": {}
  },
  "userdoc": {
    "methods": {}
  }
}