{
  "contractName": "Empfangsbekenntnis",
  "abi": [
    {
      "constant": true,
      "inputs": [],
      "name": "name",
      "outputs": [
        {
          "name": "",
          "type": "string"
        }
      ],
      "payable": false,
      "stateMutability": "view",
      "type": "function"
    },
    {
      "constant": true,
      "inputs": [
        {
          "name": "",
          "type": "bytes32"
        },
        {
          "name": "",
          "type": "uint256"
        }
      ],
      "name": "documentLinkHashToDocuments",
      "outputs": [
        {
          "name": "",
          "type": "uint256"
        }
      ],
      "payable": false,
      "stateMutability": "view",
      "type": "function"
    },
    {
      "constant": true,
      "inputs": [],
      "name": "documentCount",
      "outputs": [
        {
          "name": "",
          "type": "uint256"
        }
      ],
      "payable": false,
      "stateMutability": "view",
      "type": "function"
    },
    {
      "constant": true,
      "inputs": [
        {
          "name": "",
          "type": "uint256"
        }
      ],
      "name": "documents",
      "outputs": [
        {
          "name": "id",
          "type": "uint256"
        },
        {
          "name": "documentLinkHash",
          "type": "bytes32"
        },
        {
          "name": "sender",
          "type": "address"
        },
        {
          "name": "sentAt",
          "type": "uint256"
        },
        {
          "name": "readCount",
          "type": "uint256"
        }
      ],
      "payable": false,
      "stateMutability": "view",
      "type": "function"
    },
    {
      "inputs": [],
      "payable": false,
      "stateMutability": "nonpayable",
      "type": "constructor"
    },
    {
      "anonymous": false,
      "inputs": [
        {
          "indexed": false,
          "name": "id",
          "type": "uint256"
        },
        {
          "indexed": false,
          "name": "documentLinkHash",
          "type": "bytes32"
        },
        {
          "indexed": false,
          "name": "sender",
          "type": "address"
        }
      ],
      "name": "DocumentSent",
      "type": "event"
    },
    {
      "anonymous": false,
      "inputs": [
        {
          "indexed": false,
          "name": "id",
          "type": "uint256"
        },
        {
          "indexed": false,
          "name": "documentLinkHash",
          "type": "bytes32"
        },
        {
          "indexed": false,
          "name": "sender",
          "type": "address"
        },
        {
          "indexed": false,
          "name": "reader",
          "type": "address"
        },
        {
          "indexed": false,
          "name": "readCount",
          "type": "uint256"
        }
      ],
      "name": "DocumentRead",
      "type": "event"
    },
    {
      "constant": false,
      "inputs": [
        {
          "name": "_documentLink",
          "type": "string"
        }
      ],
      "name": "sendDocument",
      "outputs": [],
      "payable": false,
      "stateMutability": "nonpayable",
      "type": "function"
    },
    {
      "constant": false,
      "inputs": [
        {
          "name": "_documentLink",
          "type": "string"
        }
      ],
      "name": "readDocument",
      "outputs": [],
      "payable": false,
      "stateMutability": "nonpayable",
      "type": "function"
    },
    {
      "constant": true,
      "inputs": [
        {
          "name": "series",
          "type": "string"
        }
      ],
      "name": "hashLink",
      "outputs": [
        {
          "name": "",
          "type": "bytes32"
        }
      ],
      "payable": false,
      "stateMutability": "pure",
      "type": "function"
    },
    {
      "constant": true,
      "inputs": [
        {
          "name": "id",
          "type": "uint256"
        }
      ],
      "name": "getReads",
      "outputs": [
        {
          "name": "_readers",
          "type": "address[]"
        },
        {
          "name": "_readAt",
          "type": "uint256[]"
        }
      ],
      "payable": false,
      "stateMutability": "view",
      "type": "function"
    }
  ],
  "bytecode": "0x6080604052600060015534801561001557600080fd5b506040518060600160405280602e815260200162001067602e91396000908051906020019061004592919061004b565b506100f0565b828054600181600116156101000203166002900490600052602060002090601f016020900481019282601f1061008c57805160ff19168380011785556100ba565b828001600101855582156100ba579182015b828111156100b957825182559160200191906001019061009e565b5b5090506100c791906100cb565b5090565b6100ed91905b808211156100e95760008160009055506001016100d1565b5090565b90565b610f6780620001006000396000f3fe608060405234801561001057600080fd5b50600436106100885760003560e01c80635f5080e41161005b5780635f5080e4146103515780637e80b7b91461039d578063a5b16b2e1461046c578063c2ed2b051461048a57610088565b806306fdde031461008d57806315d82f501461011057806345d65794146101db5780634a4c171914610296575b600080fd5b610095610514565b6040518080602001828103825283818151815260200191508051906020019080838360005b838110156100d55780820151818401526020810190506100ba565b50505050905090810190601f1680156101025780820380516001836020036101000a031916815260200191505b509250505060405180910390f35b61013c6004803603602081101561012657600080fd5b81019080803590602001909291905050506105b2565b604051808060200180602001838103835285818151815260200191508051906020019060200280838360005b83811015610183578082015181840152602081019050610168565b50505050905001838103825284818151815260200191508051906020019060200280838360005b838110156101c55780820151818401526020810190506101aa565b5050505090500194505050505060405180910390f35b610294600480360360208110156101f157600080fd5b810190808035906020019064010000000081111561020e57600080fd5b82018360208201111561022057600080fd5b8035906020019184600183028401116401000000008311171561024257600080fd5b91908080601f016020809104026020016040519081016040528093929190818152602001838380828437600081840152601f19601f82011690508083019250505050505050919291929050505061075b565b005b61034f600480360360208110156102ac57600080fd5b81019080803590602001906401000000008111156102c957600080fd5b8201836020820111156102db57600080fd5b803590602001918460018302840111640100000000831117156102fd57600080fd5b91908080601f016020809104026020016040519081016040528093929190818152602001838380828437600081840152601f19601f820116905080830192505050505050509192919290505050610a27565b005b6103876004803603604081101561036757600080fd5b810190808035906020019092919080359060200190929190505050610c87565b6040518082815260200191505060405180910390f35b610456600480360360208110156103b357600080fd5b81019080803590602001906401000000008111156103d057600080fd5b8201836020820111156103e257600080fd5b8035906020019184600183028401116401000000008311171561040457600080fd5b91908080601f016020809104026020016040519081016040528093929190818152602001838380828437600081840152601f19601f820116905080830192505050505050509192919290505050610cb5565b6040518082815260200191505060405180910390f35b610474610d4a565b6040518082815260200191505060405180910390f35b6104b6600480360360208110156104a057600080fd5b8101908080359060200190929190505050610d50565b604051808681526020018581526020018473ffffffffffffffffffffffffffffffffffffffff1673ffffffffffffffffffffffffffffffffffffffff1681526020018381526020018281526020019550505050505060405180910390f35b60008054600181600116156101000203166002900480601f0160208091040260200160405190810160405280929190818152602001828054600181600116156101000203166002900480156105aa5780601f1061057f576101008083540402835291602001916105aa565b820191906000526020600020905b81548152906001019060200180831161058d57829003601f168201915b505050505081565b6060806105bd610da6565b600260008581526020019081526020016000206040518060e001604052908160008201548152602001600182015481526020016002820160009054906101000a900473ffffffffffffffffffffffffffffffffffffffff1673ffffffffffffffffffffffffffffffffffffffff1673ffffffffffffffffffffffffffffffffffffffff1681526020016003820154815260200160048201548152602001600582018054806020026020016040519081016040528092919081815260200182805480156106de57602002820191906000526020600020905b8160009054906101000a900473ffffffffffffffffffffffffffffffffffffffff1673ffffffffffffffffffffffffffffffffffffffff1681526020019060010190808311610694575b505050505081526020016006820180548060200260200160405190810160405280929190818152602001828054801561073657602002820191906000526020600020905b815481526020019060010190808311610722575b50505050508152505090508060a001518160c001518191508090509250925050915091565b6000339050600061076b83610cb5565b90506060600360008381526020019081526020016000208054806020026020016040519081016040528092919081815260200182805480156107cc57602002820191906000526020600020905b8154815260200190600101908083116107b8575b50505050509050600081511161084a576040517f08c379a000000000000000000000000000000000000000000000000000000000815260040180806020018281038252601a8152602001807f6d757374207265616420636f727265637420646f63756d656e7400000000000081525060200191505060405180910390fd5b60008090505b8151811015610a2057600082828151811061086757fe5b6020026020010151905060006002600083815260200190815260200160002090508060040160008154809291906001019190505550806005018690806001815401808255809150509060018203906000526020600020016000909192909190916101000a81548173ffffffffffffffffffffffffffffffffffffffff021916908373ffffffffffffffffffffffffffffffffffffffff16021790555050806006014290806001815401808255809150509060018203906000526020600020016000909192909190915055507f0ec5203216401d9321412b3e9cbfb64d26ac500dc880b38c96509901aec7b331816000015482600101548360020160009054906101000a900473ffffffffffffffffffffffffffffffffffffffff16898560040154604051808681526020018581526020018473ffffffffffffffffffffffffffffffffffffffff1673ffffffffffffffffffffffffffffffffffffffff1681526020018373ffffffffffffffffffffffffffffffffffffffff1673ffffffffffffffffffffffffffffffffffffffff1681526020018281526020019550505050505060405180910390a150508080600101915050610850565b5050505050565b6000815111610a9e576040517f08c379a00000000000000000000000000000000000000000000000000000000081526004018080602001828103825260198152602001807f6d7573742068617665206120646f63756d656e74206c696e6b0000000000000081525060200191505060405180910390fd5b6001600081548092919060010191905055506000610abb82610cb5565b90506060806040518060e0016040528060015481526020018481526020013373ffffffffffffffffffffffffffffffffffffffff1681526020014281526020016000815260200183815260200182815250600260006001548152602001908152602001600020600082015181600001556020820151816001015560408201518160020160006101000a81548173ffffffffffffffffffffffffffffffffffffffff021916908373ffffffffffffffffffffffffffffffffffffffff160217905550606082015181600301556080820151816004015560a0820151816005019080519060200190610bac929190610dfc565b5060c0820151816006019080519060200190610bc9929190610e86565b509050506003600084815260200190815260200160002060015490806001815401808255809150509060018203906000526020600020016000909192909190915055507fc3258ec84574a7e28c44f85132d62b966ff7a054bcd40b4f865e8c221f5f73c56001548433604051808481526020018381526020018273ffffffffffffffffffffffffffffffffffffffff1673ffffffffffffffffffffffffffffffffffffffff168152602001935050505060405180910390a150505050565b60036020528160005260406000208181548110610ca057fe5b90600052602060002001600091509150505481565b6000816040516020018080602001828103825283818151815260200191508051906020019080838360005b83811015610cfb578082015181840152602081019050610ce0565b50505050905090810190601f168015610d285780820380516001836020036101000a031916815260200191505b5092505050604051602081830303815290604052805190602001209050919050565b60015481565b60026020528060005260406000206000915090508060000154908060010154908060020160009054906101000a900473ffffffffffffffffffffffffffffffffffffffff16908060030154908060040154905085565b6040518060e001604052806000815260200160008019168152602001600073ffffffffffffffffffffffffffffffffffffffff168152602001600081526020016000815260200160608152602001606081525090565b828054828255906000526020600020908101928215610e75579160200282015b82811115610e745782518260006101000a81548173ffffffffffffffffffffffffffffffffffffffff021916908373ffffffffffffffffffffffffffffffffffffffff16021790555091602001919060010190610e1c565b5b509050610e829190610ed3565b5090565b828054828255906000526020600020908101928215610ec2579160200282015b82811115610ec1578251825591602001919060010190610ea6565b5b509050610ecf9190610f16565b5090565b610f1391905b80821115610f0f57600081816101000a81549073ffffffffffffffffffffffffffffffffffffffff021916905550600101610ed9565b5090565b90565b610f3891905b80821115610f34576000816000905550600101610f1c565b5090565b9056fea165627a7a723058201bd281ace7440de0741fad7eccd664593f530e2daee7aa40f86ac8e3497e70ae0029456d7066616e677362656b656e6e746e69732028c2a7313734205a6976696c70726f7a6573736f72646e756e6729",
  "source": "pragma solidity ^0.5.0;\n\ncontract Empfangsbekenntnis {\n    string public name;\n    uint public documentCount = 0;\n    mapping(uint => Document) public documents;\n    mapping(bytes32 => uint[]) public documentLinkHashToDocuments;\n\n    struct Document {\n        uint id;\n        bytes32 documentLinkHash;\n        address payable sender;\n        uint sentAt;\n        uint readCount;\n        address[] readers;\n        uint[] readAt;\n    }\n\n    event DocumentSent(\n        uint id,\n        bytes32 documentLinkHash,\n        address payable sender\n    );\n\n    event DocumentRead(\n        uint id,\n        bytes32 documentLinkHash,\n        address payable sender,\n        address payable reader,\n        uint readCount\n    );\n\n    constructor() public {\n        name = \"Empfangsbekenntnis (ยง174 Zivilprozessordnung)\";\n    }\n\n    function sendDocument(string memory _documentLink) public {\n        // Require a valid name\n        require(bytes(_documentLink).length > 0, \"must have a document link\");\n        // Increment document count\n        documentCount ++;\n        // Hash document link to prevent putting clear text link on chain. Different hashes for same document because of documentNumber in Hash.\n        bytes32 _documentLinkHash = hashLink(_documentLink);\n        // Create the document\n        address[] memory emptyAddressArray;\n        uint[] memory emptyUintArray;\n        documents[documentCount] = Document(documentCount, _documentLinkHash, msg.sender, block.timestamp, 0, emptyAddressArray, emptyUintArray);\n        documentLinkHashToDocuments[_documentLinkHash].push(documentCount);\n        // Trigger an event\n        emit DocumentSent(documentCount, _documentLinkHash, msg.sender);\n    }\n\n    function readDocument(string memory _documentLink) public {\n        address payable _reader = msg.sender;\n        // Hash document link to check with stored hashes to prevent fraudulent document reading.\n        bytes32 _documentLinkHash = hashLink(_documentLink);\n        // Fetch the documents\n        uint[] memory _documentIds = documentLinkHashToDocuments[_documentLinkHash];\n        require(_documentIds.length > 0, \"must read correct document\");\n        for (uint i = 0; i < _documentIds.length; i++) {\n            uint _documentId = _documentIds[i];\n            Document storage _document = documents[_documentId];\n            // Mark as read\n            _document.readCount ++;\n            _document.readers.push(_reader);\n            _document.readAt.push(block.timestamp);\n            // Update the document\n            //documents[_documentId] = _document; (no longer needed since we update a storage reference)\n            // Trigger an event\n            emit DocumentRead(_document.id, _document.documentLinkHash, _document.sender, _reader, _document.readCount);\n        }\n    }\n\n    function hashLink(string memory series) public pure returns (bytes32) {\n        return keccak256(abi.encode(series));\n    }\n\n    function getReads(uint256 id) public view returns (address[] memory _readers, uint[] memory _readAt) {\n        // Fetch the document\n        Document memory _document = documents[id];\n\n        return (_document.readers, _document.readAt);\n    }\n}\n",
  "sourcePath": "D:/BlockchainEmpfangsbekenntnis/src/contracts/Empfangsbekenntnis.sol",
  "compiler": {
    "name": "solc",
    "version": "0.5.8+commit.23d335f2.Emscripten.clang"
  },
  "schemaVersion": "3.0.17",
  "updatedAt": "2019-11-14T18:50:11.203Z",
  "networkType": "ethereum",
  "devdoc": {
    "methods": {}
  },
  "userdoc": {
    "methods": {}
  }
}